{
  "_format": "hh-sol-artifact-1",
  "contractName": "GrowingPricing",
  "sourceName": "contracts/GrowingPricing.sol",
  "abi": [
    {
      "inputs": [
        {
          "internalType": "uint256",
          "name": "amount",
          "type": "uint256"
        },
        {
          "internalType": "uint256",
          "name": "totalSold",
          "type": "uint256"
        }
      ],
      "name": "nextPrice",
      "outputs": [
        {
          "internalType": "uint256",
          "name": "",
          "type": "uint256"
        }
      ],
      "stateMutability": "nonpayable",
      "type": "function"
    },
    {
      "inputs": [
        {
          "internalType": "uint256",
          "name": "amount",
          "type": "uint256"
        },
        {
          "internalType": "uint256",
          "name": "totalSold",
          "type": "uint256"
        }
      ],
      "name": "viewNextPrice",
      "outputs": [
        {
          "internalType": "uint256",
          "name": "",
          "type": "uint256"
        }
      ],
      "stateMutability": "view",
      "type": "function"
    }
  ],
  "bytecode": "0x608060405234801561001057600080fd5b50610164806100206000396000f3fe608060405234801561001057600080fd5b50600436106100365760003560e01c806368d7f8d61461003b57806397ef594014610064575b600080fd5b61004e6100493660046100b7565b610077565b60405161005b91906100d8565b60405180910390f35b61004e6100723660046100b7565b61009d565b60008160005461008791906100e1565b600081905561009690846100f9565b9392505050565b6000816000546100ad91906100e1565b61009690846100f9565b600080604083850312156100c9578182fd5b50508035926020909101359150565b90815260200190565b600082198211156100f4576100f4610118565b500190565b600081600019048311821515161561011357610113610118565b500290565b634e487b7160e01b600052601160045260246000fdfea264697066735822122067060a14404712b11d2bb0e4b7a856208ea983fb5a52ef0ea8f3673a92d69a4d64736f6c63430008010033",
  "linkReferences": {},
  "deployedLinkReferences": {}
}