{
  "_format": "hh-sol-artifact-1",
  "contractName": "InitDiamond",
  "sourceName": "contracts/InitDiamond.sol",
  "abi": [
    {
      "inputs": [
        {
          "components": [
            {
              "internalType": "address",
              "name": "govTokenAddress",
              "type": "address"
            }
          ],
          "internalType": "struct InitDiamond.Args",
          "name": "args",
          "type": "tuple"
        }
      ],
      "name": "init",
      "outputs": [],
      "stateMutability": "nonpayable",
      "type": "function"
    }
  ],
  "bytecode": "0x608060405234801561001057600080fd5b506102ce806100206000396000f3fe608060405234801561001057600080fd5b506004361061002b5760003560e01c80633cfffd3914610030575b600080fd5b61004361003e3660046101bb565b610045565b005b8051600080546001600160a01b0319166001600160a01b03909216919091179055604080518082018252600a815269131511d11a585b5bdb9960b21b60208083019190915282518084019093526002835261563160f01b908301526100a991610126565b60015560006100b6610193565b6301ffc9a760e01b600090815260039091016020526040808220805460ff1990811660019081179092556307e4c70760e21b845282842080548216831790556348e2b09360e01b845282842080548216831790556307f5828d60e41b845291909220805490911690911790555050565b60006040518060800160405280604f815260200161024a604f913980519060200120838051906020012083805190602001206101606101b7565b3060405160200161017595949392919061021d565b60405160208183030381529060405280519060200120905092915050565b7fc8fcad8db84d3cc18b4c41d551ea0ee66dd599cde068d998e57d5e09332c131c90565b4690565b6000602082840312156101cc578081fd5b6040516020810181811067ffffffffffffffff821117156101fb57634e487b7160e01b83526041600452602483fd5b60405282356001600160a01b0381168114610214578283fd5b81529392505050565b9485526020850193909352604084019190915260608301526001600160a01b0316608082015260a0019056fe454950373132446f6d61696e28737472696e67206e616d652c737472696e672076657273696f6e2c75696e743235362073616c742c6164647265737320766572696679696e67436f6e747261637429a26469706673582212206fa3636c1e4be720fcfd383c978ac2a7492ca0e51b9f6849f7180496df5f6f8264736f6c63430008010033",
  "linkReferences": {},
  "deployedLinkReferences": {}
}