{
  "_format": "hh-sol-artifact-1",
  "contractName": "Raise",
  "sourceName": "contracts/Raise.sol",
  "abi": [
    {
      "inputs": [
        {
          "components": [
            {
              "internalType": "uint256",
              "name": "creatorMint",
              "type": "uint256"
            },
            {
              "internalType": "uint256",
              "name": "max",
              "type": "uint256"
            },
            {
              "internalType": "string",
              "name": "dataURI",
              "type": "string"
            },
            {
              "internalType": "uint256",
              "name": "length",
              "type": "uint256"
            },
            {
              "internalType": "uint256",
              "name": "startTime",
              "type": "uint256"
            },
            {
              "internalType": "uint256",
              "name": "transferTax",
              "type": "uint256"
            },
            {
              "internalType": "uint256",
              "name": "maxBuy",
              "type": "uint256"
            }
          ],
          "internalType": "struct Request",
          "name": "request_",
          "type": "tuple"
        },
        {
          "internalType": "string",
          "name": "name_",
          "type": "string"
        },
        {
          "internalType": "string",
          "name": "symbol_",
          "type": "string"
        },
        {
          "internalType": "address",
          "name": "gov_",
          "type": "address"
        },
        {
          "internalType": "address",
          "name": "pricing_",
          "type": "address"
        },
        {
          "internalType": "address",
          "name": "whitelist_",
          "type": "address"
        },
        {
          "internalType": "address",
          "name": "maintainer_",
          "type": "address"
        }
      ],
      "stateMutability": "nonpayable",
      "type": "constructor"
    },
    {
      "anonymous": false,
      "inputs": [
        {
          "indexed": false,
          "internalType": "address",
          "name": "owner",
          "type": "address"
        },
        {
          "indexed": false,
          "internalType": "address",
          "name": "spender",
          "type": "address"
        },
        {
          "indexed": false,
          "internalType": "uint256",
          "name": "amount",
          "type": "uint256"
        }
      ],
      "name": "Approval",
      "type": "event"
    },
    {
      "anonymous": false,
      "inputs": [
        {
          "indexed": false,
          "internalType": "address",
          "name": "sender",
          "type": "address"
        },
        {
          "indexed": false,
          "internalType": "address",
          "name": "recipient",
          "type": "address"
        },
        {
          "indexed": false,
          "internalType": "uint256",
          "name": "amount",
          "type": "uint256"
        }
      ],
      "name": "Transfer",
      "type": "event"
    },
    {
      "inputs": [
        {
          "internalType": "address",
          "name": "addy",
          "type": "address"
        }
      ],
      "name": "addTaxFree",
      "outputs": [],
      "stateMutability": "nonpayable",
      "type": "function"
    },
    {
      "inputs": [
        {
          "internalType": "address",
          "name": "owner",
          "type": "address"
        },
        {
          "internalType": "address",
          "name": "spender",
          "type": "address"
        }
      ],
      "name": "allowance",
      "outputs": [
        {
          "internalType": "uint256",
          "name": "",
          "type": "uint256"
        }
      ],
      "stateMutability": "view",
      "type": "function"
    },
    {
      "inputs": [],
      "name": "apeIn",
      "outputs": [],
      "stateMutability": "payable",
      "type": "function"
    },
    {
      "inputs": [
        {
          "internalType": "uint256",
          "name": "amount",
          "type": "uint256"
        }
      ],
      "name": "applyTransferTax",
      "outputs": [
        {
          "internalType": "uint256",
          "name": "",
          "type": "uint256"
        }
      ],
      "stateMutability": "view",
      "type": "function"
    },
    {
      "inputs": [
        {
          "internalType": "address",
          "name": "spender",
          "type": "address"
        },
        {
          "internalType": "uint256",
          "name": "amount",
          "type": "uint256"
        }
      ],
      "name": "approve",
      "outputs": [
        {
          "internalType": "bool",
          "name": "",
          "type": "bool"
        }
      ],
      "stateMutability": "nonpayable",
      "type": "function"
    },
    {
      "inputs": [
        {
          "internalType": "address",
          "name": "account",
          "type": "address"
        }
      ],
      "name": "balanceOf",
      "outputs": [
        {
          "internalType": "uint256",
          "name": "",
          "type": "uint256"
        }
      ],
      "stateMutability": "view",
      "type": "function"
    },
    {
      "inputs": [
        {
          "internalType": "uint256",
          "name": "value",
          "type": "uint256"
        }
      ],
      "name": "belowMax",
      "outputs": [
        {
          "internalType": "bool",
          "name": "",
          "type": "bool"
        }
      ],
      "stateMutability": "view",
      "type": "function"
    },
    {
      "inputs": [],
      "name": "checkIsTaxEnabled",
      "outputs": [
        {
          "internalType": "bool",
          "name": "",
          "type": "bool"
        }
      ],
      "stateMutability": "view",
      "type": "function"
    },
    {
      "inputs": [
        {
          "internalType": "address",
          "name": "addy",
          "type": "address"
        }
      ],
      "name": "checkIsTaxFree",
      "outputs": [
        {
          "internalType": "bool",
          "name": "",
          "type": "bool"
        }
      ],
      "stateMutability": "view",
      "type": "function"
    },
    {
      "inputs": [],
      "name": "creator",
      "outputs": [
        {
          "internalType": "address payable",
          "name": "",
          "type": "address"
        }
      ],
      "stateMutability": "view",
      "type": "function"
    },
    {
      "inputs": [],
      "name": "data",
      "outputs": [
        {
          "internalType": "uint256",
          "name": "creatorMint",
          "type": "uint256"
        },
        {
          "internalType": "uint256",
          "name": "max",
          "type": "uint256"
        },
        {
          "internalType": "string",
          "name": "dataURI",
          "type": "string"
        },
        {
          "internalType": "uint256",
          "name": "length",
          "type": "uint256"
        },
        {
          "internalType": "uint256",
          "name": "startTime",
          "type": "uint256"
        },
        {
          "internalType": "uint256",
          "name": "transferTax",
          "type": "uint256"
        },
        {
          "internalType": "uint256",
          "name": "maxBuy",
          "type": "uint256"
        }
      ],
      "stateMutability": "view",
      "type": "function"
    },
    {
      "inputs": [],
      "name": "decimals",
      "outputs": [
        {
          "internalType": "uint8",
          "name": "",
          "type": "uint8"
        }
      ],
      "stateMutability": "view",
      "type": "function"
    },
    {
      "inputs": [
        {
          "internalType": "address",
          "name": "spender",
          "type": "address"
        },
        {
          "internalType": "uint256",
          "name": "subtractedValue",
          "type": "uint256"
        }
      ],
      "name": "decreaseAllowance",
      "outputs": [
        {
          "internalType": "bool",
          "name": "",
          "type": "bool"
        }
      ],
      "stateMutability": "nonpayable",
      "type": "function"
    },
    {
      "inputs": [],
      "name": "endTime",
      "outputs": [
        {
          "internalType": "uint256",
          "name": "",
          "type": "uint256"
        }
      ],
      "stateMutability": "view",
      "type": "function"
    },
    {
      "inputs": [],
      "name": "flipTaxSwitch",
      "outputs": [],
      "stateMutability": "nonpayable",
      "type": "function"
    },
    {
      "inputs": [
        {
          "internalType": "address",
          "name": "spender",
          "type": "address"
        },
        {
          "internalType": "uint256",
          "name": "addedValue",
          "type": "uint256"
        }
      ],
      "name": "increaseAllowance",
      "outputs": [
        {
          "internalType": "bool",
          "name": "",
          "type": "bool"
        }
      ],
      "stateMutability": "nonpayable",
      "type": "function"
    },
    {
      "inputs": [],
      "name": "name",
      "outputs": [
        {
          "internalType": "string",
          "name": "",
          "type": "string"
        }
      ],
      "stateMutability": "view",
      "type": "function"
    },
    {
      "inputs": [
        {
          "internalType": "address",
          "name": "ape",
          "type": "address"
        },
        {
          "internalType": "uint256",
          "name": "amount",
          "type": "uint256"
        }
      ],
      "name": "notOverLimit",
      "outputs": [
        {
          "internalType": "bool",
          "name": "",
          "type": "bool"
        }
      ],
      "stateMutability": "view",
      "type": "function"
    },
    {
      "inputs": [
        {
          "internalType": "address",
          "name": "ape",
          "type": "address"
        }
      ],
      "name": "okToApe",
      "outputs": [
        {
          "internalType": "bool",
          "name": "",
          "type": "bool"
        }
      ],
      "stateMutability": "view",
      "type": "function"
    },
    {
      "inputs": [],
      "name": "pricing",
      "outputs": [
        {
          "internalType": "contract IPricing",
          "name": "",
          "type": "address"
        }
      ],
      "stateMutability": "view",
      "type": "function"
    },
    {
      "inputs": [],
      "name": "raiseGov",
      "outputs": [
        {
          "internalType": "address",
          "name": "",
          "type": "address"
        }
      ],
      "stateMutability": "view",
      "type": "function"
    },
    {
      "inputs": [],
      "name": "symbol",
      "outputs": [
        {
          "internalType": "string",
          "name": "",
          "type": "string"
        }
      ],
      "stateMutability": "view",
      "type": "function"
    },
    {
      "inputs": [],
      "name": "totalRaised",
      "outputs": [
        {
          "internalType": "uint256",
          "name": "",
          "type": "uint256"
        }
      ],
      "stateMutability": "view",
      "type": "function"
    },
    {
      "inputs": [],
      "name": "totalSupply",
      "outputs": [
        {
          "internalType": "uint256",
          "name": "",
          "type": "uint256"
        }
      ],
      "stateMutability": "view",
      "type": "function"
    },
    {
      "inputs": [
        {
          "internalType": "address",
          "name": "recipient",
          "type": "address"
        },
        {
          "internalType": "uint256",
          "name": "amount",
          "type": "uint256"
        }
      ],
      "name": "transfer",
      "outputs": [
        {
          "internalType": "bool",
          "name": "",
          "type": "bool"
        }
      ],
      "stateMutability": "nonpayable",
      "type": "function"
    },
    {
      "inputs": [
        {
          "internalType": "address",
          "name": "sender",
          "type": "address"
        },
        {
          "internalType": "address",
          "name": "recipient",
          "type": "address"
        },
        {
          "internalType": "uint256",
          "name": "amount",
          "type": "uint256"
        }
      ],
      "name": "transferFrom",
      "outputs": [
        {
          "internalType": "bool",
          "name": "",
          "type": "bool"
        }
      ],
      "stateMutability": "nonpayable",
      "type": "function"
    },
    {
      "inputs": [],
      "name": "whitelist",
      "outputs": [
        {
          "internalType": "contract IWhiteList",
          "name": "",
          "type": "address"
        }
      ],
      "stateMutability": "view",
      "type": "function"
    },
    {
      "inputs": [
        {
          "internalType": "address",
          "name": "ape",
          "type": "address"
        }
      ],
      "name": "whitelisted",
      "outputs": [
        {
          "internalType": "bool",
          "name": "",
          "type": "bool"
        }
      ],
      "stateMutability": "view",
      "type": "function"
    }
  ],
  "bytecode": "0x60806040523480156200001157600080fd5b5060405162001c8538038062001c858339810160408190526200003491620003a8565b8551869086906200004d90600390602085019062000254565b5080516200006390600490602084019062000254565b505060118054326001600160a01b0319918216179091556005805482166001600160a01b0388811691909117909155600680548316878316179055600780549092169085161790555060608701516080880151620000c291906200057e565b600f5586516008908155602080890151600955604089015180518a9392620000f092600a9291019062000254565b50606082015160038201556080820151600482015560a080830151600583015560c0909201516006909101558701511562000133576014805460ff191660011790555b865115620001695786516200014a90329062000176565b62000169816103e88960000151620001639190620005a3565b62000176565b5050505050505062000617565b6001600160a01b038216620001a85760405162461bcd60e51b81526004016200019f9062000514565b60405180910390fd5b620001b6600083836200024f565b8060026000828254620001ca91906200057e565b90915550506001600160a01b03821660009081526020819052604081208054839290620001f99084906200057e565b90915550506040517fddf252ad1be2c89b69c2b068fc378daa952ba7f163c4a11628f55a4df523b3ef90620002359060009085908590620004f0565b60405180910390a16200024b600083836200024f565b5050565b505050565b8280546200026290620005c4565b90600052602060002090601f016020900481019282620002865760008555620002d1565b82601f10620002a157805160ff1916838001178555620002d1565b82800160010185558215620002d1579182015b82811115620002d1578251825591602001919060010190620002b4565b50620002df929150620002e3565b5090565b5b80821115620002df5760008155600101620002e4565b80516001600160a01b03811681146200031257600080fd5b919050565b600082601f83011262000328578081fd5b81516001600160401b0381111562000344576200034462000601565b60206200035a601f8301601f191682016200054b565b82815285828487010111156200036e578384fd5b835b838110156200038d57858101830151828201840152820162000370565b838111156200039e57848385840101525b5095945050505050565b600080600080600080600060e0888a031215620003c3578283fd5b87516001600160401b0380821115620003da578485fd5b9089019060e0828c031215620003ee578485fd5b620003fa60e06200054b565b82518152602083015160208201526040830151828111156200041a578687fd5b620004288d82860162000317565b604083015250606083015160608201526080830151608082015260a083015160a082015260c083015160c08201528099505060208a01519150808211156200046e578485fd5b6200047c8b838c0162000317565b975060408a015191508082111562000492578485fd5b50620004a18a828b0162000317565b955050620004b260608901620002fa565b9350620004c260808901620002fa565b9250620004d260a08901620002fa565b9150620004e260c08901620002fa565b905092959891949750929550565b6001600160a01b039384168152919092166020820152604081019190915260600190565b6020808252601f908201527f45524332303a206d696e7420746f20746865207a65726f206164647265737300604082015260600190565b604051601f8201601f191681016001600160401b038111828210171562000576576200057662000601565b604052919050565b600082198211156200059e57634e487b7160e01b81526011600452602481fd5b500190565b600082620005bf57634e487b7160e01b81526012600452602481fd5b500490565b600281046001821680620005d957607f821691505b60208210811415620005fb57634e487b7160e01b600052602260045260246000fd5b50919050565b634e487b7160e01b600052604160045260246000fd5b61165e80620006276000396000f3fe6080604052600436106101b75760003560e01c80637d5d6edb116100ec578063c5c4744c1161008a578063da468a7511610064578063da468a7514610474578063db91a42414610494578063dd62ed3e146104b4578063de178e1e146104d4576101b7565b8063c5c4744c1461041f578063c71ca81a14610434578063d936547e14610454576101b7565b806393e59dc1116100c657806393e59dc1146103b557806395d89b41146103ca578063a457c2d7146103df578063a9059cbb146103ff576101b7565b80637d5d6edb146103785780637de586e0146103805780638792d886146103a0576101b7565b80632e2e357611610159578063395093511161013357806339509351146102fb57806370a082311461031b57806373d4a13a1461033b5780637ce9141114610363576101b7565b80632e2e3576146102af578063313ce567146102c45780633197cbb6146102e6576101b7565b80630fc07efd116101955780630fc07efd14610236578063176bac3e1461025857806318160ddd1461026d57806323b872dd1461028f576101b7565b806302d05d3f146101bc57806306fdde03146101e7578063095ea7b314610209575b600080fd5b3480156101c857600080fd5b506101d16104f4565b6040516101de9190611195565b60405180910390f35b3480156101f357600080fd5b506101fc610503565b6040516101de91906111d8565b34801561021557600080fd5b506102296102243660046110d1565b610595565b6040516101de91906111cd565b34801561024257600080fd5b50610256610251366004611043565b6105b3565b005b34801561026457600080fd5b50610256610615565b34801561027957600080fd5b50610282610629565b6040516101de91906114ff565b34801561029b57600080fd5b506102296102aa366004611096565b61062f565b3480156102bb57600080fd5b506102296106f9565b3480156102d057600080fd5b506102d9610702565b6040516101de919061155b565b3480156102f257600080fd5b50610282610707565b34801561030757600080fd5b506102296103163660046110d1565b61070d565b34801561032757600080fd5b50610282610336366004611043565b610761565b34801561034757600080fd5b50610350610780565b6040516101de9796959493929190611516565b34801561036f57600080fd5b506101d1610833565b610256610842565b34801561038c57600080fd5b5061022961039b3660046110d1565b6109cc565b3480156103ac57600080fd5b506101d1610a14565b3480156103c157600080fd5b506101d1610a23565b3480156103d657600080fd5b506101fc610a32565b3480156103eb57600080fd5b506102296103fa3660046110d1565b610a41565b34801561040b57600080fd5b5061022961041a3660046110d1565b610aba565b34801561042b57600080fd5b50610282610b4b565b34801561044057600080fd5b5061022961044f366004611043565b610b51565b34801561046057600080fd5b5061022961046f366004611043565b610b89565b34801561048057600080fd5b5061028261048f36600461111a565b610cc5565b3480156104a057600080fd5b506102296104af366004611043565b610d00565b3480156104c057600080fd5b506102826104cf366004611064565b610d44565b3480156104e057600080fd5b506102296104ef36600461111a565b610d6f565b6011546001600160a01b031681565b606060038054610512906115d7565b80601f016020809104026020016040519081016040528092919081815260200182805461053e906115d7565b801561058b5780601f106105605761010080835404028352916020019161058b565b820191906000526020600020905b81548152906001019060200180831161056e57829003601f168201915b5050505050905090565b60006105a96105a2610d9a565b8484610d9e565b5060015b92915050565b6105bb610d9a565b6011546001600160a01b039081169116146105f15760405162461bcd60e51b81526004016105e8906112b6565b60405180910390fd5b6001600160a01b03166000908152601360205260409020805460ff19166001179055565b6014805460ff19811660ff90911615179055565b60025490565b600061063c61044f610d9a565b8061064b575061064b83610b51565b156106605761065b848484610e53565b6106aa565b600061066b83610cc5565b905061067781846115c0565b1561069d5760115461069d9086906001600160a01b031661069884876115c0565b610e53565b6106a8858583610e53565b505b60006106b8856104cf610d9a565b9050828110156106da5760405162461bcd60e51b81526004016105e890611312565b6106ee856106e6610d9a565b858403610d9e565b506001949350505050565b60145460ff1690565b601290565b600f5481565b60006105a961071a610d9a565b848460016000610728610d9a565b6001600160a01b03908116825260208083019390935260409182016000908120918b168152925290205461075c9190611569565b610d9e565b6001600160a01b0381166000908152602081905260409020545b919050565b60088054600954600a805492939192610798906115d7565b80601f01602080910402602001604051908101604052809291908181526020018280546107c4906115d7565b80156108115780601f106107e657610100808354040283529160200191610811565b820191906000526020600020905b8154815290600101906020018083116107f457829003601f168201915b5050505050908060030154908060040154908060050154908060060154905087565b6006546001600160a01b031681565b61084b33610d00565b6108675760405162461bcd60e51b81526004016105e89061135a565b61087034610d6f565b61088c5760405162461bcd60e51b81526004016105e8906112db565b6006546000906001600160a01b03166368d7f8d6346108a9610629565b6040518363ffffffff1660e01b81526004016108c6929190611508565b602060405180830381600087803b1580156108e057600080fd5b505af11580156108f4573d6000803e3d6000fd5b505050506040513d601f19601f820116820180604052508101906109189190611132565b905061092433826109cc565b6109405760405162461bcd60e51b81526004016105e890611496565b600e54156109745733600090815260126020526040902054610963908290611569565b336000908152601260205260409020555b61097e3382610f6c565b3460105461098c9190611569565b6010556011546040516001600160a01b03909116903480156108fc02916000818181858888f193505050501580156109c8573d6000803e3d6000fd5b5050565b600e54600090156105a957600e546001600160a01b0384166000908152601260205260409020546109fe908490611569565b1115610a0c575060006105ad565b5060016105ad565b6005546001600160a01b031681565b6007546001600160a01b031681565b606060048054610512906115d7565b60008060016000610a50610d9a565b6001600160a01b0390811682526020808301939093526040918201600090812091881681529252902054905082811015610a9c5760405162461bcd60e51b81526004016105e89061141a565b610ab0610aa7610d9a565b85858403610d9e565b5060019392505050565b6000610ac761044f610d9a565b80610ad65750610ad683610b51565b15610af257610aed610ae6610d9a565b8484610e53565b6105a9565b6000610afd83610cc5565b9050610b0981846115c0565b15610b2f57610b2f610b19610d9a565b6011546001600160a01b031661069884876115c0565b610b41610b3a610d9a565b8583610e53565b5050600192915050565b60105481565b60145460009060ff1615610b8157506001600160a01b03811660009081526013602052604090205460ff1661077b565b50600161077b565b60075460405163673448dd60e01b81526000916001600160a01b03169063673448dd90610bba908590600401611195565b60206040518083038186803b158015610bd257600080fd5b505afa158015610be6573d6000803e3d6000fd5b505050506040513d601f19601f82011682018060405250810190610c0a91906110fa565b15610c175750600161077b565b6005546001600160a01b0316610c2f5750600061077b565b6005546040516370a0823160e01b81526001600160a01b0390911690670de0b6b3a76400009082906370a0823190610c6b908790600401611195565b60206040518083038186803b158015610c8357600080fd5b505afa158015610c97573d6000803e3d6000fd5b505050506040513d601f19601f82011682018060405250810190610cbb9190611132565b101591505061077b565b600d5460009015610cfc57600d5461271090610ce190846115a1565b610ceb9190611581565b610cf590836115c0565b905061077b565b5090565b6000600f54421015610d3c57600c54421115610d1e5750600161077b565b610d2782610b89565b15610d345750600161077b565b50600061077b565b506000919050565b6001600160a01b03918216600090815260016020908152604080832093909416825291909152205490565b600954600090610d815750600161077b565b600954601054610d919084611569565b1115905061077b565b3390565b6001600160a01b038316610dc45760405162461bcd60e51b81526004016105e8906113d6565b6001600160a01b038216610dea5760405162461bcd60e51b81526004016105e89061122e565b6001600160a01b0380841660009081526001602090815260408083209386168352929052819020829055517f8c5be1e5ebec7d5bd14f71427d1e84f3dd0314c0f7b2291e5b200ac8c7c3b92590610e46908590859085906111a9565b60405180910390a1505050565b6001600160a01b038316610e795760405162461bcd60e51b81526004016105e890611391565b6001600160a01b038216610e9f5760405162461bcd60e51b81526004016105e8906111eb565b610eaa838383611027565b6001600160a01b03831660009081526020819052604090205481811015610ee35760405162461bcd60e51b81526004016105e890611270565b6001600160a01b03808516600090815260208190526040808220858503905591851681529081208054849290610f1a908490611569565b90915550506040517fddf252ad1be2c89b69c2b068fc378daa952ba7f163c4a11628f55a4df523b3ef90610f53908690869086906111a9565b60405180910390a1610f66848484611027565b50505050565b6001600160a01b038216610f925760405162461bcd60e51b81526004016105e89061145f565b610f9e60008383611027565b8060026000828254610fb09190611569565b90915550506001600160a01b03821660009081526020819052604081208054839290610fdd908490611569565b90915550506040517fddf252ad1be2c89b69c2b068fc378daa952ba7f163c4a11628f55a4df523b3ef9061101790600090859085906111a9565b60405180910390a16109c8600083835b505050565b80356001600160a01b038116811461077b57600080fd5b600060208284031215611054578081fd5b61105d8261102c565b9392505050565b60008060408385031215611076578081fd5b61107f8361102c565b915061108d6020840161102c565b90509250929050565b6000806000606084860312156110aa578081fd5b6110b38461102c565b92506110c16020850161102c565b9150604084013590509250925092565b600080604083850312156110e3578182fd5b6110ec8361102c565b946020939093013593505050565b60006020828403121561110b578081fd5b8151801515811461105d578182fd5b60006020828403121561112b578081fd5b5035919050565b600060208284031215611143578081fd5b5051919050565b60008151808452815b8181101561116f57602081850181015186830182015201611153565b818111156111805782602083870101525b50601f01601f19169290920160200192915050565b6001600160a01b0391909116815260200190565b6001600160a01b039384168152919092166020820152604081019190915260600190565b901515815260200190565b60006020825261105d602083018461114a565b60208082526023908201527f45524332303a207472616e7366657220746f20746865207a65726f206164647260408201526265737360e81b606082015260800190565b60208082526022908201527f45524332303a20617070726f766520746f20746865207a65726f206164647265604082015261737360f01b606082015260800190565b60208082526026908201527f45524332303a207472616e7366657220616d6f756e7420657863656564732062604082015265616c616e636560d01b606082015260800190565b6020808252600b908201526a3737ba1031b932b0ba37b960a91b604082015260600190565b60208082526018908201527f746f206d75636820666f72207468697320726571756573740000000000000000604082015260600190565b60208082526028908201527f45524332303a207472616e7366657220616d6f756e74206578636565647320616040820152676c6c6f77616e636560c01b606082015260800190565b6020808252601c908201527f4e6f742061626c6520746f2061706520696e207269676874206e6f7700000000604082015260600190565b60208082526025908201527f45524332303a207472616e736665722066726f6d20746865207a65726f206164604082015264647265737360d81b606082015260800190565b60208082526024908201527f45524332303a20617070726f76652066726f6d20746865207a65726f206164646040820152637265737360e01b606082015260800190565b60208082526025908201527f45524332303a2064656372656173656420616c6c6f77616e63652062656c6f77604082015264207a65726f60d81b606082015260800190565b6020808252601f908201527f45524332303a206d696e7420746f20746865207a65726f206164647265737300604082015260600190565b60208082526043908201527f7468697320616464726573732068617320616c726561647920626f756768742060408201527f6173206d75636820617320746865792063616e2066726f6d207468697320726160608201526269736560e81b608082015260a00190565b90815260200190565b918252602082015260400190565b600088825287602083015260e0604083015261153560e083018861114a565b90508560608301528460808301528360a08301528260c083015298975050505050505050565b60ff91909116815260200190565b6000821982111561157c5761157c611612565b500190565b60008261159c57634e487b7160e01b81526012600452602481fd5b500490565b60008160001904831182151516156115bb576115bb611612565b500290565b6000828210156115d2576115d2611612565b500390565b6002810460018216806115eb57607f821691505b6020821081141561160c57634e487b7160e01b600052602260045260246000fd5b50919050565b634e487b7160e01b600052601160045260246000fdfea26469706673582212202aba709c4eb20bfd342f213c0dcb9356a184202093dd56bd5efe6653c3b959d464736f6c63430008010033",
  "linkReferences": {},
  "deployedLinkReferences": {}
}