{
  "_format": "hh-sol-artifact-1",
  "contractName": "Whitelist",
  "sourceName": "contracts/Whitelist.sol",
  "abi": [
    {
      "anonymous": false,
      "inputs": [
        {
          "indexed": false,
          "internalType": "address",
          "name": "newEntry",
          "type": "address"
        },
        {
          "indexed": false,
          "internalType": "uint256",
          "name": "numberApproved",
          "type": "uint256"
        }
      ],
      "name": "AddressAdded",
      "type": "event"
    },
    {
      "anonymous": false,
      "inputs": [
        {
          "indexed": false,
          "internalType": "address",
          "name": "entry",
          "type": "address"
        },
        {
          "indexed": false,
          "internalType": "uint256",
          "name": "numberApproved",
          "type": "uint256"
        }
      ],
      "name": "AddressRemoved",
      "type": "event"
    },
    {
      "anonymous": false,
      "inputs": [
        {
          "indexed": true,
          "internalType": "address",
          "name": "previousOwner",
          "type": "address"
        },
        {
          "indexed": true,
          "internalType": "address",
          "name": "newOwner",
          "type": "address"
        }
      ],
      "name": "OwnershipTransferred",
      "type": "event"
    },
    {
      "inputs": [
        {
          "internalType": "address",
          "name": "newEntry",
          "type": "address"
        }
      ],
      "name": "addToList",
      "outputs": [],
      "stateMutability": "nonpayable",
      "type": "function"
    },
    {
      "inputs": [
        {
          "internalType": "address",
          "name": "entry",
          "type": "address"
        }
      ],
      "name": "isApproved",
      "outputs": [
        {
          "internalType": "bool",
          "name": "",
          "type": "bool"
        }
      ],
      "stateMutability": "view",
      "type": "function"
    },
    {
      "inputs": [],
      "name": "numberApproved",
      "outputs": [
        {
          "internalType": "uint256",
          "name": "",
          "type": "uint256"
        }
      ],
      "stateMutability": "view",
      "type": "function"
    },
    {
      "inputs": [],
      "name": "owner",
      "outputs": [
        {
          "internalType": "address",
          "name": "",
          "type": "address"
        }
      ],
      "stateMutability": "view",
      "type": "function"
    },
    {
      "inputs": [
        {
          "internalType": "address",
          "name": "entry",
          "type": "address"
        }
      ],
      "name": "removeFromList",
      "outputs": [],
      "stateMutability": "nonpayable",
      "type": "function"
    },
    {
      "inputs": [],
      "name": "renounceOwnership",
      "outputs": [],
      "stateMutability": "nonpayable",
      "type": "function"
    },
    {
      "inputs": [
        {
          "internalType": "address",
          "name": "newOwner",
          "type": "address"
        }
      ],
      "name": "transferOwnership",
      "outputs": [],
      "stateMutability": "nonpayable",
      "type": "function"
    }
  ],
  "bytecode": "0x608060405234801561001057600080fd5b5061002161001c610026565b61002a565b61007a565b3390565b600080546001600160a01b038381166001600160a01b0319831681178455604051919092169283917f8be0079c531659141344cd1fd0a4f28419497f9722a3daafe3b4186f6b6457e09190a35050565b6105de806100896000396000f3fe608060405234801561001057600080fd5b506004361061007d5760003560e01c80638da5cb5b1161005b5780638da5cb5b146100c8578063bd659784146100dd578063be69ace7146100f0578063f2fde38b146101055761007d565b8063257f9abf14610082578063673448dd14610097578063715018a6146100c0575b600080fd5b61009561009036600461042b565b610118565b005b6100aa6100a536600461042b565b610209565b6040516100b79190610486565b60405180910390f35b610095610227565b6100d0610272565b6040516100b79190610459565b6100956100eb36600461042b565b610281565b6100f8610360565b6040516100b7919061055a565b61009561011336600461042b565b610366565b6101206103d7565b6001600160a01b0316610131610272565b6001600160a01b0316146101605760405162461bcd60e51b8152600401610157906104fc565b60405180910390fd5b6001600160a01b03811660009081526001602052604090205460ff166101985760405162461bcd60e51b8152600401610157906104d7565b6001600160a01b0381166000908152600160208190526040909120805460ff191690556002546101c8919061057b565b60028190556040517f7d851b998d813b4411ff47632041862d27873efb27dd5a6b4c021549ee337494916101fe9184919061046d565b60405180910390a150565b6001600160a01b031660009081526001602052604090205460ff1690565b61022f6103d7565b6001600160a01b0316610240610272565b6001600160a01b0316146102665760405162461bcd60e51b8152600401610157906104fc565b61027060006103db565b565b6000546001600160a01b031690565b6102896103d7565b6001600160a01b031661029a610272565b6001600160a01b0316146102c05760405162461bcd60e51b8152600401610157906104fc565b6001600160a01b03811660009081526001602052604090205460ff16156102f95760405162461bcd60e51b815260040161015790610531565b6001600160a01b0381166000908152600160208190526040909120805460ff19168217905560025461032a91610563565b60028190556040517f9cc987676e7d63379f176ea50df0ae8d2d9d1141d1231d4ce15b5965f73c9430916101fe9184919061046d565b60025481565b61036e6103d7565b6001600160a01b031661037f610272565b6001600160a01b0316146103a55760405162461bcd60e51b8152600401610157906104fc565b6001600160a01b0381166103cb5760405162461bcd60e51b815260040161015790610491565b6103d4816103db565b50565b3390565b600080546001600160a01b038381166001600160a01b0319831681178455604051919092169283917f8be0079c531659141344cd1fd0a4f28419497f9722a3daafe3b4186f6b6457e09190a35050565b60006020828403121561043c578081fd5b81356001600160a01b0381168114610452578182fd5b9392505050565b6001600160a01b0391909116815260200190565b6001600160a01b03929092168252602082015260400190565b901515815260200190565b60208082526026908201527f4f776e61626c653a206e6577206f776e657220697320746865207a65726f206160408201526564647265737360d01b606082015260800190565b6020808252600b908201526a1b9bdd081bdb881b1a5cdd60aa1b604082015260600190565b6020808252818101527f4f776e61626c653a2063616c6c6572206973206e6f7420746865206f776e6572604082015260600190565b6020808252600f908201526e185b1c9958591e481bdb881b1a5cdd608a1b604082015260600190565b90815260200190565b6000821982111561057657610576610592565b500190565b60008282101561058d5761058d610592565b500390565b634e487b7160e01b600052601160045260246000fdfea26469706673582212208ce6cd125e478c7802720c3da6d08ed3ba0688066d3c7e43aa610bcf99257d6b64736f6c63430008010033",
  "linkReferences": {},
  "deployedLinkReferences": {}
}