{
  "_format": "hh-sol-artifact-1",
  "contractName": "FixedPricing",
  "sourceName": "contracts/FixedPricing.sol",
  "abi": [
    {
      "inputs": [
        {
          "internalType": "uint256",
          "name": "amount",
          "type": "uint256"
        },
        {
          "internalType": "uint256",
          "name": "totalSold",
          "type": "uint256"
        }
      ],
      "name": "nextPrice",
      "outputs": [
        {
          "internalType": "uint256",
          "name": "",
          "type": "uint256"
        }
      ],
      "stateMutability": "nonpayable",
      "type": "function"
    },
    {
      "inputs": [
        {
          "internalType": "uint256",
          "name": "amount",
          "type": "uint256"
        },
        {
          "internalType": "uint256",
          "name": "totalSold",
          "type": "uint256"
        }
      ],
      "name": "viewNextPrice",
      "outputs": [
        {
          "internalType": "uint256",
          "name": "",
          "type": "uint256"
        }
      ],
      "stateMutability": "view",
      "type": "function"
    }
  ],
  "bytecode": "0x608060405234801561001057600080fd5b50610159806100206000396000f3fe608060405234801561001057600080fd5b50600436106100365760003560e01c806368d7f8d61461003b57806397ef59401461003b575b600080fd5b61004e6100493660046100ae565b610064565b60405161005b91906100fa565b60405180910390f35b6000660aa87bee5380008310156100965760405162461bcd60e51b815260040161008d906100cf565b60405180910390fd5b6100a7660aa87bee53800084610103565b9392505050565b600080604083850312156100c0578182fd5b50508035926020909101359150565b6020808252601190820152701a5b9cdd59999a595b9d08185b5bdd5b9d607a1b604082015260600190565b90815260200190565b60008261011e57634e487b7160e01b81526012600452602481fd5b50049056fea26469706673582212202759bd22f7408804a9acd35862680268bac10985c6a9cd1716ea398f5690558364736f6c63430008010033",
  "linkReferences": {},
  "deployedLinkReferences": {}
}